:020000040800F2
:100000000000012045380008491400084B1400087E
:100010004D1400084F14000851140008000000009F
:100020000000000000000000000000005314000861
:100030005514000800000000571400085914000867
:10004000953800089538000895380008953800085C
:10005000953800089538000895380008953800084C
:10006000953800089538000895380008953800083C
:10007000953800089538000895380008953800082C
:10008000953800089538000895380008953800081C
:10009000953800089538000895380008953800080C
:1000A00095380008953800089538000895380008FC
:1000B0009538000800000000000000009538000896
:1000C0009538000800000000000000009538000886
:1000D0000000000095380008953800080000000076
:1000E0009538000895380008000000000000000066
:1000F0000000000000000000000000000000000000
:10010000000000000000000000000000953800081A
:10011000000000000000000061140008A91400089D
:10012000953800089538000895380008953800087B
:1001300095380008000000000000000000000000EA
:10014000953800089538000895380008953800085B
:10015000953800089538000895380008953800084B
:100160009538000895380008953800080000000010
:1001700095380008953800080000000000000000D5
:1001800095380008953800089538000800000000F0
:10019000034613F8012B002AFBD1181A01387047C7
:1001A00001F0FF01102A2BDB10F0070F08D010F828
:1001B000013B013A8B422DD010F0070F42B3F6D12C
:1001C000F0B441EA012141EA014122F007047FF045
:1001D00000070023F0E80256083C85EA010586EA9C
:1001E000010685FA47F5A3FA87F586FA47F6A5FAD8
:1001F00087F68EB9EED1F0BC01F0FF0102F00702E4
:1002000032B110F8013B013A83EA010313B1F8D18E
:100210000020704701387047002D06BF354603386F
:10022000073815F0010F07D1013015F4807F02BFA8
:10023000013015F4C03F0130F0BC0138704700BFF9
:1002400081F0004102E000BF83F0004330B54FEA87
:1002500041044FEA430594EA050F08BF90EA020FF4
:100260001FBF54EA000C55EA020C7FEA645C7FEA87
:10027000655C00F0E2804FEA5454D4EB5555B8BFAA
:100280006D420CDD2C4480EA020281EA030382EA1B
:10029000000083EA010180EA020281EA0303362DAD
:1002A00088BF30BD11F0004F4FEA01314FF4801C80
:1002B0004CEA113102D0404261EB410113F0004F92
:1002C0004FEA03334CEA133302D0524263EB430349
:1002D00094EA050F00F0A780A4F10104D5F1200EE7
:1002E0000DDB02FA0EFC22FA05F2801841F1000142
:1002F00003FA0EF2801843FA05F359410EE0A5F116
:1003000020050EF1200E012A03FA0EFC28BF4CF046
:10031000020C43FA05F3C01851EBE37101F00045FC
:1003200007D54FF0000EDCF1000C7EEB00006EEB09
:100330000101B1F5801F1BD3B1F5001F0CD3490893
:100340005FEA30004FEA3C0C04F101044FEA4452EA
:1003500012F5800F80F09A80BCF1004F08BF5FEA71
:10036000500C50F1000041EB045141EA050130BD51
:100370005FEA4C0C404141EB0101013C28BFB1F563
:10038000801FE9D291F0000F04BF01460020B1FAAE
:1003900081F308BF2033A3F10B03B3F120020CDA81
:1003A0000C3208DD02F1140CC2F10C0201FA0CF05F
:1003B00021FA02F10CE002F11402D8BFC2F1200CC4
:1003C00001FA02F120FA0CFCDCBF41EA0C0190407A
:1003D000E41AA2BF01EB0451294330BD6FEA0404C3
:1003E0001F3C1CDA0C340EDC04F11404C4F12002AE
:1003F00020FA04F001FA02F340EA030021FA04F3C0
:1004000045EA030130BDC4F10C04C4F1200220FA16
:1004100002F001FA04F340EA0300294630BD21FA54
:1004200004F0294630BD94F0000F83F4801306BF1A
:1004300081F480110134013D4EE77FEA645C18BF0E
:100440007FEA655C29D094EA050F08BF90EA020FA5
:1004500005D054EA000C04BF1946104630BD91EA9D
:10046000030F1EBF0021002030BD5FEA545C05D1A0
:100470004000494128BF41F0004130BD14F58004DF
:100480003CBF01F5801130BD01F0004545F0FE4153
:1004900041F470014FF0000030BD7FEA645C1ABF88
:1004A000194610467FEA655C1CBF0B46024650EABF
:1004B000013406BF52EA033591EA030F41F40021EB
:1004C00030BD00BF90F0000F04BF0021704730B571
:1004D0004FF4806404F132044FF000054FF0000146
:1004E00050E700BF90F0000F04BF0021704730B507
:1004F0004FF4806404F1320410F0004548BF4042DC
:100500004FF000013EE700BF42004FEAE2014FEA30
:1005100031014FEA02701FBF12F07F4393F07F4F0B
:1005200081F06051704732F07F4208BF704793F00E
:100530007F4F04BF41F40021704730B54FF4607421
:1005400001F0004521F000411CE700BF50EA010224
:1005500008BF704730B54FF000050AE050EA0102CD
:1005600008BF704730B511F0004502D5404261EB3D
:1005700041014FF4806404F132045FEA915C3FF47E
:10058000D8AE4FF003025FEADC0C18BF03325FEA1B
:10059000DC0C18BF033202EBDC02C2F1200300FACC
:1005A00003FC20FA02F001FA03FE40EA0E0021FAF1
:1005B00002F11444BDE600BF70B54FF0FF0C4CF4DF
:1005C000E06C1CEA11541DBF1CEA135594EA0C0F91
:1005D00095EA0C0F00F0DEF82C4481EA030621EACC
:1005E0004C5123EA4C5350EA013518BF52EA033507
:1005F00041F4801143F4801338D0A0FB02CE4FF0B9
:100600000005E1FB02E506F00042E0FB03E54FF0E8
:100610000006E1FB03569CF0000F18BF4EF0010EE0
:10062000A4F1FF04B6F5007F64F5407404D25FEADC
:100630004E0E6D4146EB060642EAC62141EA55518F
:100640004FEAC52040EA5E504FEACE2EB4F1FD0CD1
:1006500088BFBCF5E06F1ED8BEF1004F08BF5FEA4F
:10066000500E50F1000041EB045170BD06F0004601
:1006700046EA010140EA020081EA0301B4EB5C04AE
:10068000C2BFD4EB0C0541EA045170BD41F48011A6
:100690004FF0000E013C00F3AB8014F1360FDEBFCB
:1006A000002001F0004170BDC4F10004203C35DAA7
:1006B0000C341BDC04F11404C4F1200500FA05F32A
:1006C00020FA04F001FA05F240EA020001F00042CB
:1006D00021F0004110EBD37021FA04F642EB060141
:1006E0005EEA430E08BF20EAD37070BDC4F10C046B
:1006F000C4F1200500FA04F320FA05F001FA04F22F
:1007000040EA020001F0004110EBD37041F100011A
:100710005EEA430E08BF20EAD37070BDC4F1200525
:1007200000FA05F24EEA020E20FA04F301FA05F28D
:1007300043EA020321FA04F001F0004121FA04F235
:1007400020EA020000EBD3705EEA430E08BF20EA05
:10075000D37070BD94F0000F0FD101F0004640003F
:1007600041EB010111F4801F08BF013CF7D041EAC1
:10077000060195F0000F18BF704703F000465200C5
:1007800043EB030313F4801F08BF013DF7D043EA96
:100790000603704794EA0C0F0CEA135518BF95EA4C
:1007A0000C0F0CD050EA410618BF52EA4306D1D1D3
:1007B00081EA030101F000414FF0000070BD50EAF2
:1007C000410606BF1046194652EA430619D094EA7C
:1007D0000C0F02D150EA013613D195EA0C0F05D166
:1007E00052EA03361CBF104619460AD181EA0301BA
:1007F00001F0004141F0FE4141F470014FF0000072
:1008000070BD41F0FE4141F4780170BD70B54FF00C
:10081000FF0C4CF4E06C1CEA11541DBF1CEA13558C
:1008200094EA0C0F95EA0C0F00F0A7F8A4EB05046E
:1008300081EA030E52EA03354FEA013100F0888065
:100840004FEA03334FF0805545EA131343EA12632E
:100850004FEA022245EA111545EA10654FEA0026E3
:100860000EF000419D4208BF964244F1FD0404F59C
:10087000407402D25B084FEA3202B61A65EB0305F8
:100880005B084FEA32024FF480104FF4002CB6EBB5
:10089000020E75EB030E22BFB61A754640EA0C0035
:1008A0005B084FEA3202B6EB020E75EB030E22BF75
:1008B000B61A754640EA5C005B084FEA3202B6EBB6
:1008C000020E75EB030E22BFB61A754640EA9C0075
:1008D0005B084FEA3202B6EB020E75EB030E22BF45
:1008E000B61A754640EADC0055EA060E18D04FEA03
:1008F000051545EA16754FEA06164FEAC30343EAA3
:1009000052734FEAC2025FEA1C1CC0D111F4801F6F
:100910000BD141EA00014FF000004FF0004CB6E768
:1009200011F4801F04BF01430020B4F1FD0C88BF07
:10093000BCF5E06F3FF6AFAEB5EB030C04BFB6EB12
:10094000020C5FEA500C50F1000041EB045170BD05
:100950000EF0004E4EEA113114EB5C04C2BFD4EB32
:100960000C0541EA045170BD41F480114FF0000EB6
:10097000013C90E645EA060E8DE60CEA135594EA32
:100980000C0F08BF95EA0C0F3FF43BAF94EA0C0F35
:100990000AD150EA01347FF434AF95EA0C0F7FF4AA
:1009A00025AF104619462CE795EA0C0F06D152EAFE
:1009B00003353FF4FDAE1046194622E750EA4106E2
:1009C00018BF52EA43067FF4C5AE50EA41047FF4F3
:1009D0000DAF52EA43057FF4EBAE12E74FEA410256
:1009E000B2F1E04324BFB3F5001CDCF1FE5C0DD98D
:1009F00001F0004C4FEAC0024CEA5070B2F1004FD7
:100A000040EB830008BF20F00100704711F0804FD9
:100A100021D113F13872BCBF01F00040704741F49E
:100A200080114FEA5252C2F11802C2F1200C10FAA2
:100A30000CF320FA02F018BF40F001004FEAC12386
:100A40004FEAD32303FA0CFC40EA0C0023FA02F32A
:100A50004FEA4303CCE77FEA625307D150EA013300
:100A60001EBF4FF0FE4040F44000704701F00040D0
:100A700040F0FE4040F40000704700BF53B94AB94F
:100A8000002908BF00281CBF4FF0FF314FF0FF3096
:100A900000F00CB8ADF1080C6DE904CE03F0A2FB38
:100AA000DDF804E0DDE9022304B07047704700BFC1
:100AB00010B5054C237833B9044B13B10448AFF398
:100AC00000800123237010BD68000020000000009A
:100AD000A044000808B5034B1BB103490348AFF31A
:100AE000008008BD000000006C000020A044000849
:100AF00070B588B000240394049405940694079478
:100B0000224BDA6C42F00402DA64DA6C02F004027E
:100B10000092009ADA6C42F00102DA64DA6C02F0B8
:100B200001020192019ADA6C42F00202DA64DB6C93
:100B300003F002030293029B224610214FF09040E3
:100B400000F064FE124D22460821284600F05EFEA9
:100B500010230393012604960594069403A94FF0ED
:100B6000904000F07BFD08230393049605940694BF
:100B700003A9284600F072FD2023039304940594F2
:100B800003A9284600F06AFD08B070BD00100240BD
:100B90000004004810B50446FFF7FAFA4FF0FF339F
:100BA00082B22146034802F078FD0821024800F095
:100BB00032FE10BDA4000020000400480000000028
:100BC00038B500F0C9FC104B1B68834217D00E4BA0
:100BD00018604FF080435D6A0C4C2068281AFFF7BC
:100BE00071FC256006A3D3E90023FFF70FFE002266
:100BF000074BFFF7E1FCFFF7F1FE064B186038BD2D
:100C00009A9999999999B93F880000208400002009
:100C100000009040A000002072B6FEE708B5114821
:100C2000114B0360114B4360002383600122C260BB
:100C3000036143618361C361036200F038FF50B90F
:100C40000021084801F006F938B90021054801F0F3
:100C50002FF920B908BDFFF7DFFFFFF7DDFFFFF732
:100C6000DBFF00BF0C02002000540040BB7C700082
:100C700000B585B000230193029303930E480F4AF9
:100C8000026049F6404242608360C823C36080230B
:100C9000836102F0CBF950B900230193039301A9BA
:100CA000054802F0C1FA20B905B05DF804FBFFF772
:100CB000B3FFFFF7B1FF00BF740100200010004038
:100CC00008B50B480B4B03604FF4E133436000233E
:100CD0008360C36003610C2242618361C36103626C
:100CE000436202F07EFD00B908BDFFF795FF00BF2B
:100CF000A40000200044004000B58DB02422002153
:100D000003A802F0E9FD0023009301930293114828
:100D10004FF080420260436083604FF0FF32C26058
:100D200003618361012303930593099303A902F0EF
:100D3000ADF950B90023009302936946054802F0CB
:100D400073FA20B90DB05DF804FBFFF765FFFFF7FC
:100D500063FF00BFC001002000B585B000230193F0
:100D6000029303930E480F4A026049F640424260E4
:100D700083605023C3608023836102F057F950B928
:100D800000230193039301A9054802F04DFA20B90D
:100D900005B05DF804FBFFF73FFFFFF73DFF00BF25
:100DA000280100200014004000B597B04422002123
:100DB00005A802F091FD0023009301930293039391
:100DC00004934FF4007001F0AFF8002831D101F026
:100DD0009BF81B4AD2F8903023F01803C2F89030E9
:100DE00014230593012307930B9300220C92602296
:100DF0000D9202220F921093119310231293072346
:100E000013931492159205A801F078F998B90F235D
:100E1000009303230193002302930393049301217E
:100E2000684601F0A1FC40B901F0B8FF17B05DF8C9
:100E300004FBFFF7F1FEFFF7EFFEFFF7EDFE00BF4B
:100E40000010024008B500F06BFBFFF7ADFFFFF7A5
:100E50004FFEFFF7E3FEFFF70BFFFFF731FFFFF752
:100E60004BFFFFF779FF00F02BF90E4801F09EFFD2
:100E70003C210D4802F071F90C4BD3ED007A0C4C7B
:100E8000FDEEE77A17EE902A0A49204602F004FDAB
:100E90000A21084600F04EF801220749204600F0DA
:100EA0009DF8E9E774010020C0010020A0000020A7
:100EB0008C000020145200080000002008B530B952
:100EC00000214FF48062034802F006FD08BDFF21B7
:100ED000F7E700BF680200207F2825D83F2923D8E4
:100EE00010B4124B1B7913B1B2FA82F25209012AE3
:100EF0000FD0CB0800EBC3100D4C225C01F00701B2
:100F000001238B40DB435BB2134023545DF8044B59
:100F10007047CB0800EBC310054C235C01F00701C0
:100F20008A4013432354F1E7704700BF600200205A
:100F300068020020014B1880598070476002002031
:100F40002DE9F8439046244B1B880A7813447F2BE5
:100F50003EDC81460D46204B5B884A7813443F2B8C
:100F600038DC002620E01C4B188859883144204486
:100F7000B8FA88F2520989B280B2FFF7ADFF0134A6
:100F80002B78A3420FD907FA04F313F4004FEAD0E9
:100F9000114B1888598831442044424689B280B2A6
:100FA000FFF79AFFEBE701366A78B24208D9696821
:100FB000A9F1200302FB036331F813700024DFE77B
:100FC000054A138829780B4413804846BDE8F88306
:100FD0000020FBE70020F9E76002002070B504461E
:100FE0000E46154600E00134207838B12A463146D5
:100FF000FFF7A6FF034620788342F4D070BD0000BF
:1010000090B583B002AF144603F10802D208EC4653
:10101000ACEBC202954602AA8DF808104FF0010C05
:1010200009E004EB0C0E1EF801EC02F80CE00CF1E8
:10103000010C5FFA8CFC9C45F3D90A210091014612
:10104000024800F093FD0437BD4690BD0C0200201D
:1010500000B585B08DF80C108DF80D200A23009393
:10106000022303AA0146034800F080FD05B05DF8A5
:1010700004FB00BF0C02002010B500241AE0A4F10C
:101080005002D2B200213C20FFF7E2FF00221146BD
:101090003C20FFF7DDFF102200213C20FFF7D8FFA6
:1010A0008023064A02EBC41240213C20FFF7A8FF30
:1010B0000134E4B2072CE2D910BD00BF6802002061
:1010C00008B544F6206301223C21534800F00CFE91
:1010D000002840F09E8040F6C41300E0013B002B46
:1010E000FCD1AE2200213C20FFF7B2FF20220021DC
:1010F0003C20FFF7ADFF102200213C20FFF7A8FFA6
:10110000B02200213C20FFF7A3FFC82200213C2091
:10111000FFF79EFF002211463C20FFF799FF1022A7
:1011200000213C20FFF794FF402200213C20FFF7E4
:101130008FFF812200213C20FFF78AFFFF22002140
:101140003C20FFF785FFA12200213C20FFF780FF14
:10115000A62200213C20FFF77BFFA82200213C2093
:10116000FFF776FF3F2200213C20FFF771FFA4220A
:1011700000213C20FFF76CFFD32200213C20FFF729
:1011800067FF002211463C20FFF762FFD5220021B5
:101190003C20FFF75DFFF02200213C20FFF758FFC5
:1011A000D92200213C20FFF753FF222200213C20BE
:1011B000FFF74EFFDA2200213C20FFF749FF122201
:1011C00000213C20FFF744FFDB2200213C20FFF7F9
:1011D0003FFF202200213C20FFF73AFF8D22002113
:1011E0003C20FFF735FF142200213C20FFF730FFA1
:1011F000AF2200213C20FFF72BFF0020FFF75EFE0F
:10120000FFF73AFF054B00221A805A8001205871DF
:1012100008BD0020FCE700BF0C0200206002002097
:1012200082B00A4B1A6E42F001021A661A6E02F080
:1012300001020092009A9A6D42F080529A659B6D6D
:1012400003F080530193019B02B0704700100240ED
:1012500010B59CB0044600211791189119911A916C
:101260001B91542202A802F037FB2268184B9A42C5
:1012700001D01CB010BD4023029302A801F01AFC5B
:1012800018BB144CE36C43F00103E364E36C03F01C
:1012900001030093009B4FF4C0631793122318932C
:1012A0000023199303231A9304231B9317A94FF0C8
:1012B000904000F0D3F9A36D43F40013A365A36D30
:1012C00003F400130193019BD3E7FFF7A5FCD8E7D4
:1012D000005400400010024000B589B00023039381
:1012E00004930593069307930368B3F1804F02D0EC
:1012F00009B05DF804FB03F504339A6D42F0010276
:101300009A659A6D02F001020192019ADA6C42F03C
:101310000102DA64DB6C03F001030293029B2223D7
:101320000393022304930123079303A94FF09040F2
:1013300000F094F9DCE7000000B583B00368174AB9
:10134000934205D0164A934215D003B05DF804FBD2
:10135000144B9A6D42F010029A659B6D03F01003D6
:101360000093009B00221146362000F04FF93620F2
:1013700000F05CF9E9E70B4B9A6D42F020029A65A8
:101380009B6D03F020030193019B0022114637203F
:1013900000F03CF9372000F049F9D6E70010004092
:1013A000001400400010024070B59CB004460021BB
:1013B0001791189119911A911B91542202A802F0C9
:1013C0008BFA22681E4B9A4201D01CB070BD0223DA
:1013D000029302A801F06EFB00282ED1194B9A6DE2
:1013E00042F400329A659A6D02F400320092009A3B
:1013F000DA6C42F00102DA64DB6C03F00103019362
:10140000019B04231793022618960025199503249F
:101410001A9407231B9317A94FF0904000F01EF970
:101420004FF400431793189619951A941B9417A913
:101430004FF0904000F012F9C7E7FFF7EDFBCDE762
:101440000044004000100240FEE7FEE7FEE7FEE732
:10145000FEE770477047704708B500F071F808BDA7
:1014600008B50D48FFF796FB0C4B1A680C4981FB39
:101470000231D317C3EB610303EB83039A4207D016
:10148000064A136801331360064801F0CAFC08BD20
:10149000FFF7F2FDF4E700BF8C0000206806002093
:1014A000676666667401002008B5FFF789FB02488D
:1014B00001F0B7FC08BD00BF28010020034AD2F8A4
:1014C000883043F47003C2F88830704700ED00E0C4
:1014D000104B1B780BB90120704710B504464FF430
:1014E0007A70B0FBF3F30C4A1068B0FBF3F000F035
:1014F000A1F868B90F2C01D901200AE00022214689
:101500004FF0FF3000F082F8044B1C60002000E038
:10151000012010BD0C000020080000201000002059
:1015200010B5032000F060F80020FFF7D1FF10B1E4
:101530000124204610BD0446FFF772FEF9E70000C3
:10154000034B1B78034A11680B441360704700BFBC
:101550000C0000206C060020014B1868704700BF8B
:101560006C060020002807DB00F01F024009012361
:101570009340024A42F82030704700BF00E100E08B
:10158000002808DB0901C9B200F1604000F56140A4
:1015900080F80013704700F00F000901C9B2014B39
:1015A0001954704714ED00E000B500F00700C0F1D9
:1015B000070CBCF1040F28BF4FF0040C031D062BD1
:1015C0000FD9C31E4FF0FF3E0EFA0CF021EA0001C6
:1015D00099400EFA03FE22EA0E0241EA02005DF88B
:1015E00004FB0023EEE70000074AD36823F4E0631E
:1015F0001B041B0C000200F4E060034343F0BF63D4
:1016000043F40033D360704700ED00E010B50446AA
:10161000054BD868C0F30220FFF7C6FF01462046FD
:10162000FFF7AEFF10BD00BF00ED00E008B5FFF70B
:1016300099FF08BD0138B0F1807F0BD24FF0E02355
:101640005861054AF02182F8231000209861072292
:101650001A6170470120704700ED00E0F0B583B0DB
:10166000002362E085685E000324B44025EA040597
:10167000CC68B4402C438460456825EA0C054C686E
:10168000C4F300149C402C4344605FE0DD0808353F
:1016900050F8254003F0070C4FEA8C0C4FF00F0E6A
:1016A0000EFA0CFE24EA0E0E0C6904FA0CF444EA5D
:1016B0000E0440F8254060E0022400E0002404FA13
:1016C0000EF42C430CF1020C4C4D45F82C404C4CC4
:1016D000A568D44325EA02064F6817F4801F01D09D
:1016E00042EA0506464DAE60ED6804EA05064F681D
:1016F00017F4001F01D042EA0506414DEE606D6807
:1017000004EA05064F6817F4003F01D042EA0506D7
:101710003B4D6E602D682C404E6816F4803F01D022
:1017200042EA0504364A146001330A6832FA03F4C7
:1017300062D04FF0010C0CFA03FC1CEA0202F3D059
:101740004C6804F00304013C012C8BD94C6804F074
:101750000304032C0CD0C4685D004FF0030C0CFA9A
:1017600005FC24EA0C0C8C68AC4044EA0C04C46010
:101770004C6804F00304022C88D004684FEA430E3E
:101780004FF0030C0CFA0EFC24EA0C0C4C6804F02D
:10179000030404FA0EF444EA0C0404604C6814F4E4
:1017A000403FC1D0174C256E45F001052566246EDB
:1017B00004F001040194019C4FEA930C0CF1020522
:1017C0000E4C54F8255003F0030E4FEA8E0E0F24F2
:1017D00004FA0EF425EA0405B0F1904F3FF46EAF21
:1017E000094CA04206D004F58064A0423FF464AFE7
:1017F000072464E7012462E703B0F0BD0000014064
:101800000004014000100240000400480AB1816158
:10181000704781627047436901EA030221EA0301CC
:1018200041EA02418161704703689A6912F0020F30
:1018300001D000229A6203689A6912F0010F03D165
:101840009A6942F001029A61704710B4019CC1F399
:10185000090141EA02411943214321F00041026894
:101860005368640D04F4806444F07F7444F4583485
:1018700044F47F7444F0030423EA04030B435360ED
:101880005DF8044B70472DE9F041044603689F69F9
:1018900017F010074CD00E4690461022DA61002552
:1018A0002368986910F0200F3BD1002D39D1B6F193
:1018B000FF3FF5D0FFF750FEA0EB0800B04201D883
:1018C000002EEDD121684B6803F4804394F8422048
:1018D000D2B2886910F4004F02D00BB9202A18D177
:1018E00023689B6913F0200FDAD1FFF735FEA0EBD8
:1018F00008001928F4D9636C43F0200363642023A3
:1019000084F84130002384F8423084F840300125C7
:10191000E6E74B6843F480434B60FFF71DFE8046CB
:10192000DEE7002D40D12022DA610427012500E006
:1019300000252268936913F4807F05D047F00107E2
:101940004FF48071D161012513F4806F06D047F008
:10195000080722684FF48061D161012513F4007FEC
:1019600024D047F0020723684FF40072DA610125A2
:101970002046FFF759FF2268536823F0FF7323F4D2
:101980008B3323F4FF7323F001035360636C3B43F9
:101990006364202384F84130002384F8423084F8C3
:1019A00040302846BDE8F0810427C2E7002DF8D07A
:1019B000DEE770B504460D46164623689B6913F0B2
:1019C000020F1DD1324629462046FFF75CFFC8B9F9
:1019D000B5F1FF3FF1D0FFF7BFFD801BA84201D852
:1019E000002DEAD1636C43F020036364202384F864
:1019F0004130002384F8423084F84030012000E078
:101A0000002070BD0120FCE72DE9F0410646884624
:101A100017461D463468A46938EA04040CBF012443
:101A20000024BC4218D1B5F1FF3FF3D0FFF794FD7D
:101A3000069BC01AA84201D8002DEBD1736C43F06D
:101A400020037364202386F84130002386F8423057
:101A500086F84030012000E00020BDE8F08170B53C
:101A600005460C4616462B689B6913F0200F1AD1C9
:101A7000324621462846FFF706FFB0B9FFF76CFD56
:101A8000801BA04201D8002CEDD16B6C43F02003E9
:101A90006B64202385F84130002385F8423085F8B7
:101AA0004030012070BD0020FCE70120FAE700284B
:101AB00059D010B5044690F84130002B43D0242370
:101AC00084F841302268136823F0010313606368CF
:101AD000226823F0706313612268936823F4004343
:101AE0009360E368012B33D0A368226843F4044376
:101AF0009360E368022B31D02268536843F000738F
:101B000043F4004353602268D36823F40043D36056
:101B1000236962691343A169226843EA0123D36000
:101B2000E369216A22680B4313602268136843F05B
:101B30000103136000206064202384F84130206397
:101B400084F8420010BD80F84030FFF781FBB6E713
:101B5000A368226843F400439360CAE723684FF404
:101B600000625A60C8E70120704700002DE9F04785
:101B700082B00F460A9E90F84110C9B2202940F069
:101B8000A38004469046994690F84030012B00F01F
:101B90009F804FF0010A80F840A0FFF7DDFC05466A
:101BA0000090192352464FF400412046FFF72CFFC6
:101BB000002840F08F80212384F84130102384F8DE
:101BC000423000236364C4F82480A4F82A9063633D
:101BD000638D9BB2FF2B0AD9FF222285414B0093D4
:101BE0004FF0807339462046FFF72FFE18E0628DD4
:101BF00092B222853B4B00934FF00073D2B239462C
:101C00002046FFF722FE0BE0628D92B22285002370
:101C100000934FF00073D2B239462046FFF715FE0D
:101C2000638D9BB2002B33D02A4631462046FFF706
:101C3000C0FE002850D1626A236812789A62636AF3
:101C400001336362638D9BB2013B9BB26385238D3D
:101C5000013B9BB22385628D92B2002AE0D0002B1B
:101C6000DED100953346002280212046FFF7CCFECE
:101C7000A0BB638D9BB2FF2BC6D9FF222285002318
:101C800000934FF0807339462046FFF7DEFDC7E72B
:101C90002A4631462046FFF7E2FE08BB2368202291
:101CA000DA6121684B6823F0FF7323F48B3323F44C
:101CB000FF7323F001034B6084F84120002384F874
:101CC000423084F8403000E0022002B0BDE8F087E6
:101CD0000220FAE70120F8E70120F6E70120F4E707
:101CE0000120F2E7002000802DE9F04385B01D4679
:101CF0000023039390F84130DBB2202B40F09E800C
:101D000006468946904603689B6913F4004F40F0ED
:101D1000978090F84030012B00F09480012380F8E8
:101D20004030242380F841300023436444E0C9F369
:101D3000090343F0007343F4005344E033689C69A3
:101D4000C4F340149B69C3F30013C4B9BBB9B5F124
:101D5000FF3FF3D0FFF700FCC01BA84201D8002DC5
:101D6000ECD1202386F84130736C43F02003736478
:101D7000002386F84030012005B0BDE8F0833368C9
:101D80009B6913F0100F2BD000972B4600222021C7
:101D90003046FFF739FE002858D133681022DA6147
:101DA00033682022DA61039B43452AD0039B013329
:101DB0000393039B434535D2F368012BB7D0C9F396
:101DC000090343F4205332685360FFF7C5FB07460D
:101DD00033689C69C4F340149B69C3F30013B4E7F0
:101DE00000972B46002220213046FFF70DFE58BBFE
:101DF00032682023D36186F84130002386F84030D2
:101E0000BAE73268536843F48043536000972B4627
:101E1000002220213046FFF7F7FDC8B933682022A1
:101E2000DA61C3E7202386F84130736C43F0200366
:101E30007364002386F8403001209DE702209BE771
:101E4000022099E7022097E7012095E7012093E718
:101E5000012091E7034690F84120D2B2202A23D1F5
:101E600090F84020012A21D0012280F8402024222D
:101E700080F841200068026822F0010202601868C0
:101E8000026822F4805202601868026811430160FF
:101E900019680A6842F001020A60202283F8412092
:101EA000002083F8400070470220704702207047EE
:101EB000034690F84120D2B2202A21D190F8402048
:101EC000012A1FD0012280F84020242280F84120DE
:101ED0000068026822F0010202601868026822F4B9
:101EE000706242EA0122026019680A6842F0010247
:101EF0000A60202283F84120002083F840007047C8
:101F00000220704702207047024A136843F480732E
:101F10001360704700700040024B186800F4C06006
:101F2000704700BF00700040B0F5007F0FD01F4B1E
:101F30001B6803F4C063B3F5806F34D01B4A136889
:101F400023F4C06343F48063136000207047174B91
:101F50001B6803F4C063B3F5007F20D0134A1368F5
:101F600023F4C06343F400731360114B1B683222E7
:101F700002FB03F30F4AA2FB03239B0C013300E097
:101F8000013B0A4A526912F4806F01D0002BF7D14D
:101F9000064B5B6913F4806F03D10020704700206B
:101FA0007047032070470020704700BF007000405A
:101FB0000800002083DE1B4330B583B00446204B6D
:101FC0009B6D13F0805F0BD0FFF7A6FFB0F5007F8D
:101FD00017D0802C1FD82DD0702C2DD000211BE0C5
:101FE000174DAB6D43F08053AB65AB6D03F0805381
:101FF0000193019BFFF790FFAB6D23F08053AB651E
:10200000E4E7802C03D9A02C03D9022104E00021AD
:1020100002E0012100E003210A4A136823F00703CC
:102020000B431360136803F007038B4206D10020B3
:1020300003B030BD0221EFE70121EDE70120F7E712
:102040000010024000200240284A9368D26802F043
:10205000030213F00C030AD00C2B06D0042B1FD064
:10206000082B20D00020024610E0012AF6D11F4A9A
:10207000126812F0080F0CD11C4AD2F89420C2F357
:1020800003221B4951F8222043B100200C2B0DD014
:102090007047164A1268C2F30312F2E71046F5E7DA
:1020A00014480022F2E714480022EFE70F4BDB68E8
:1020B00003F00303022B03D0032B02D10E4A00E0EE
:1020C0000C4A0A49CB68C3F302130133C868C0F352
:1020D000062002FB00F0B0FBF3F0CB68C3F34163D2
:1020E00001335B00B0FBF3F0D2E700BF0010024009
:1020F0001C5200080024F40000127A00002800F0AE
:102100001C83F0B583B00446964B9D6805F00C0522
:10211000DE6806F00306036813F0100F5AD0E5B12D
:102120000C2D18D0A369002B00F0BB808D4A1368DA
:1021300043F001031360FFF70FFA0746894B1B6852
:1021400013F0020F40F09A80FFF706FAC01B022836
:10215000F4D90320FCE2012EE4D1824B1B6813F07A
:10216000020F03D0A369002B00F0E982206A7D4BA7
:102170001B6813F0080F5BD07A4B1B6803F0F00369
:1021800098425CD8774B1A6842F008021A601A68C5
:1021900022F0F002216A0A431A605A6822F47F4250
:1021A000E16942EA01225A60002D60D0FFF74CFF3E
:1021B0006C4B9B68C3F303136B4AD35C03F01F03A0
:1021C000D8406A4B18606A4B1868FFF781F90028FD
:1021D00040F0BE82236813F0010F00F08180082DCB
:1021E00075D00C2D71D06368B3F5803F00F09780F7
:1021F000B3F5A02F00F099805A4B1A6822F4803270
:102200001A601A6822F480221A606368002B00F0BA
:102210009980FFF7A1F90746524B1B6813F4003F62
:102220005ED1FFF799F9C01B6428F5D903208FE22E
:102230004C4BD3F894301B0903F0F003A0E7FFF7F1
:10224000BBFE002840F07D82464B1A6842F008022F
:102250001A601A6822F0F002216A0A431A605A686A
:1022600022F47F42E16942EA01225A609EE7206A35
:10227000FFF7A2FE002899D0012069E2394B1A68C5
:1022800042F008021A601A6822F0F002216A0A433A
:102290001A605A6822F47F42E16942EA01225A60D8
:1022A00098E7304A136823F001031360FFF754F9ED
:1022B00007462C4B1B6813F0020F8BD0FFF74CF92D
:1022C000C01B0228F5D9032042E2032E8BD1254BF7
:1022D0001B6813F4003F03D06368002B00F03382C7
:1022E000236813F0020F58D0042D45D00C2D41D097
:1022F000E368002B77D01B4A136843F480731360A4
:10230000FFF72AF90646174B1B6813F4806F61D15B
:10231000FFF722F9801B0228F5D9032018E2114AA1
:10232000136843F4803313606FE703F18043A3F530
:102330003C331A6842F480221A601A6842F48032F0
:102340001A6062E7FFF708F90746064B1B6813F4AB
:10235000003FC5D0FFF700F9C01B6428F5D9032062
:10236000F6E100BF001002405452000808000020AF
:1023700010000020022EBBD1A44B1B6813F4806F09
:1023800003D0E368002B00F0E081A04A536823F0FB
:10239000F853216943EA01635360236813F0080F7F
:1023A0004CD063699BB3994AD2F8943043F001034F
:1023B000C2F89430FFF7D0F80646944BD3F8943027
:1023C00013F0020F3AD1FFF7C7F8801B0228F4D9A7
:1023D0000320BDE18D4A536823F0F853216943EA95
:1023E00001635360D9E7894A136823F4807313604B
:1023F000FFF7B2F80646854B1B6813F4806FCCD00C
:10240000FFF7AAF8801B0228F5D90320A0E17F4A34
:10241000D2F8943023F00103C2F89430FFF79CF80F
:1024200006467A4BD3F8943013F0020F06D0FFF72C
:1024300093F8801B0228F4D9032089E1236813F064
:10244000040F7AD0714B9B6D13F0805F36D16F4BC8
:102450009A6D42F080529A659B6D03F08053019310
:10246000019B01266A4B1B6813F4807F28D0A36868
:10247000012B39D0052B3FD0644BD3F8902022F0AC
:102480000102C3F89020D3F8902022F00402C3F890
:102490009020A368002B3DD0FFF75EF807465B4B0A
:1024A000D3F8903013F0020F46D1FFF755F8C01B58
:1024B00041F288339842F2D9032049E10026D1E75E
:1024C000534A136843F480731360FFF745F80746D7
:1024D0004F4B1B6813F4807FC9D1FFF73DF8C01B39
:1024E0000228F5D9032033E1484AD2F8903043F06E
:1024F0000103C2F89030CCE7444BD3F8902042F06F
:102500000402C3F89020D3F8902042F00102C3F8EF
:102510009020BEE7FFF720F807463C4BD3F89030F9
:1025200013F0020F08D0FFF717F8C01B41F28833F1
:102530009842F2D903200BE1E6B9236813F0200F8B
:1025400035D0636AE3B1314AD2F8983043F00103E1
:10255000C2F89830FFF700F806462C4BD3F89830B5
:1025600013F0020F23D1FEF7F7FF801B0228F4D9E6
:102570000320EDE0254A936D23F080539365DCE75B
:10258000224AD2F8983023F00103C2F89830FEF7BF
:10259000E3FF06461D4BD3F8983013F0020F06D028
:1025A000FEF7DAFF801B0228F4D90320D0E0A36AEB
:1025B000002B00F0CC80022B17D00C2D00F0CC802B
:1025C000124A136823F080731360FEF7C5FF0446B8
:1025D0000E4B1B6813F0007F00F0A880FEF7BCFFD5
:1025E000001B0228F4D90320B2E0084BDB6803F09B
:1025F0000301E26A91420DD00C2D00F0AB80034B39
:102600001B6813F0806F2FD00120A1E00010024062
:102610000070004003F07002216B0139B2EB011F22
:10262000EAD103F4FE42616BB2EB012FE4D103F077
:102630007842A16BB2EBC16FDED103F4C001E26B53
:102640005208013AB1EB425FD6D103F0C063226C6D
:102650005208013AB3EB426FCED1404B1B6813F0E6
:10266000007F49D0002073E03C4A136823F0807358
:102670001360FEF771FF0546384B1B6813F0007FAF
:1026800006D0FEF769FF401B0228F5D903205FE062
:10269000324AD36832491940E36A206B013843EA71
:1026A0000013606B43EA0023E06B4008013843EA03
:1026B0004053206C4008013843EA4063A06B43EA72
:1026C000C0631943D160136843F080731360D3680B
:1026D00043F08073D360FEF73FFF04461F4B1B6837
:1026E00013F0007F06D1FEF737FF001B0228F5D953
:1026F00003202DE000202BE0184B1A6842F0807276
:102700001A60DA6842F08072DA60FEF725FF04464C
:10271000124B1B6813F0007F06D1FEF71DFF031B51
:10272000022BF5D9032013E0002011E00B4AD168F9
:102730000C4B0B40D36000200AE0012070470120C1
:1027400006E0012004E0012002E0012000E000207A
:1027500003B0F0BD0120FBE70120F9E700100240C3
:102760008C809D01FCFFEEFE002800F0AF8070B56C
:102770000D460446594B1B6803F007038B420BD2EE
:10278000564A136823F007030B431360136803F0E2
:1027900007038B4240F09C80236813F0020F0CD09B
:1027A000A2684F4B9B6803F0F0039A4205D94C494D
:1027B0008B6823F0F0031A438A60236813F0010F3B
:1027C00039D06368032B09D0022B26D063BB444A5F
:1027D000126812F0020F06D1012076E0404A12681A
:1027E00012F0007F76D03E498A6822F0030213433C
:1027F0008B60FEF7B1FE0646394B9B6803F00C0375
:102800006268B3EB820F16D0FEF7A6FE801B41F282
:1028100088339842F0D9032057E0314A126812F405
:10282000003FE0D1012050E02D4A126812F4806F81
:10283000D9D1012049E0236813F0020F0CD0A2681F
:10284000274B9B6803F0F0039A4205D224498B681A
:1028500023F0F0031A438A60204B1B6803F0070340
:10286000AB420AD91D4A136823F007032B431360B8
:10287000136803F00703AB422ED1236813F0040F53
:1028800006D0174A936823F4E063E1680B43936032
:10289000236813F0080F07D0114A936823F460539C
:1028A000216943EAC1039360FFF7CEFB0C4B9B68A1
:1028B000C3F303130B4AD35C03F01F03D8400A4B46
:1028C00018600A4B1868FEF703FE70BD01207047C0
:1028D0000120FAE70120F8E70120F6E70020024096
:1028E0000010024054520008080000201000002090
:1028F000014B1868704700BF0800002008B5FFF7BB
:10290000F7FF054B9B68C3F30223044AD35C03F033
:102910001F03D84008BD00BF001002404C52000801
:1029200008B5FFF7E5FF054B9B68C3F3C223044AD4
:10293000D35C03F01F03D84008BD00BF0010024065
:102940004C520008F8B504460D46594BDB6813F0AD
:10295000030F18D0564BDB6803F003030268934261
:1029600002D001263046F8BD002A00F09C80504B72
:10297000DB68C3F3021301334268934201D001269E
:10298000F0E7002619E00368022B55D0032B5AD03C
:10299000012B40F08A80464A126812F0020F5ED086
:1029A0004348C26822F073026168013943EA0113A7
:1029B0001343C3600026002ED4D13D4A136823F090
:1029C00080631360FEF7C8FD0746394B1B6813F0A0
:1029D000006F05D0FEF7C0FDC31B022BF5D90326FF
:1029E000002EBFD1002D3CD131490B6923F0784333
:1029F00023F4FE43A068E268D20642EA00221343B1
:102A00000B612B4A136843F080631360FEF7A4FD4B
:102A10000546274B1B6813F0006F05D1FEF79CFDA0
:102A2000401B0228F5D90326002E9BD1204A1369AA
:102A3000A1690B43136195E71D4A126812F4806F78
:102A4000AED101268EE71A4A126812F4003FA7D1D0
:102A5000174A126812F4802FA2D1012682E70126BC
:102A6000A9E7012D0FD01248026922F0C06222F4BA
:102A7000FE42A16863695B08013B5B0643EA0123F0
:102A80001A430261BDE70A48026922F4C00222F437
:102A9000FE42A16823695B08013B5B0543EA012311
:102AA0001A430261ADE701265CE701265AE700BF41
:102AB000001002402DE9F04182B00446036813F48F
:102AC000006F26D0C36BB3F5000F06D0B3F5400FEF
:102AD0001DD09BB1012637461DE0AE4AD36843F4B2
:102AE0008033D3600027AB4AD2F8883023F4400308
:102AF000E16B0B43C2F8883000260CE00021043063
:102B0000FFF720FF07460028EDD0064603E0002728
:102B1000E9E700263746236813F4003F6BD09D4B4E
:102B20009B6D13F0805F4CD19A4B9A6D42F08052AE
:102B30009A659B6D03F080530193019B4FF0010850
:102B4000954A136843F480731360FEF705FD05464C
:102B5000914B1B6813F4807F05D1FEF7FDFC401BF1
:102B60000228F5D90327002F40D18A4BD3F89030A3
:102B700013F4407315D0226D9A4212D0854AD2F8D0
:102B8000903023F44073D2F8901041F48031C2F8B1
:102B90009010D2F8901021F48031C2F89010C2F851
:102BA000903013F0010F0FD1002F40F0C980794A07
:102BB000D2F8903023F44073216D0B43C2F890306B
:102BC00015E04FF00008BBE7FEF7C6FC0546714B69
:102BD000D3F8903013F0020FE6D1FEF7BDFC401B96
:102BE00041F288339842F2D90327DDE73E46B8F137
:102BF000000F40F0A780236813F0010F08D0654A4A
:102C0000D2F8883023F00303216A0B43C2F88830DE
:102C1000236813F0020F08D05E4AD2F8883023F000
:102C20000C03616A0B43C2F88830236813F0200F4D
:102C300008D0584AD2F8883023F44063A16A0B4385
:102C4000C2F88830236813F4007F08D0514AD2F8C4
:102C5000883023F44023616B0B43C2F8883023682B
:102C600013F4806F08D04B4AD2F8883023F4401315
:102C7000A16B0B43C2F88830236813F0400F08D0D3
:102C8000444AD2F8883023F44053E16A0B43C2F837
:102C90008830236813F4807F08D03E4AD2F8883009
:102CA00023F44033216B0B43C2F88830236813F4BC
:102CB000005F0FD0374AD2F8883023F04063216C90
:102CC0000B43C2F88830236CB3F1006F40D0B3F1EE
:102CD000806F42D0236813F4802F0FD02D4AD2F892
:102CE000883023F04063616C0B43C2F88830636C1A
:102CF000B3F1006F39D0B3F1806F3BD0236813F488
:102D0000804F0CD0234AD2F8883023F04053A16C76
:102D10000B43C2F88830A36CB3F1805F32D02368D4
:102D200013F4004F08D01B4AD2F8883023F08043B8
:102D3000E16C0B43C2F88830304602B0BDE8F08148
:102D40003E4654E7134A936D23F08053936552E750
:102D5000D36843F48013D360BCE70121201DFFF743
:102D6000F1FD0028B6D00646B4E7D36843F48013DB
:102D7000D360C3E70121201DFFF7E4FD0028BDD08B
:102D80000646BBE70221201DFFF7DCFD0028C6D068
:102D90000646C4E70010024000700040024A136873
:102DA00043F00403136070470010024090F83D3078
:102DB000DBB2012B26D1022380F83D300268D368B4
:102DC00043F00103D3600368114A93420CD0B3F17E
:102DD000804F09D002F5A052934205D01A6842F004
:102DE00001021A600020704799680A4A0A40062AC0
:102DF0000AD0B2F5803F09D01A6842F001021A6089
:102E00000020704701207047002070470020704765
:102E1000002C014007000100704770477047704761
:102E2000704710B5044603681A6912F0020F11D0FA
:102E3000DA6812F0020F0DD06FF002021A6101235E
:102E4000037703689B6913F0030F79D0FFF7E6FF60
:102E50000023237723681A6912F0040F12D0DA686E
:102E600012F0040F0ED06FF004021A6102232377D0
:102E700023689B6913F4407F68D02046FFF7CEFF9C
:102E80000023237723681A6912F0080F12D0DA683A
:102E900012F0080F0ED06FF008021A610423237796
:102EA0002368DB6913F0030F57D02046FFF7B6FF06
:102EB0000023237723681A6912F0100F12D0DA6802
:102EC00012F0100F0ED06FF010021A610823237752
:102ED0002368DB6913F4407F46D02046FFF79EFF4E
:102EE0000023237723681A6912F0010F03D0DA68F0
:102EF00012F0010F3FD123681A6912F0800F03D03E
:102F0000DA6812F0800F3DD123681A6912F4807FCD
:102F100003D0DA6812F0800F3BD123681A6912F0EF
:102F2000400F03D0DA6812F0400F39D123681A69D4
:102F300012F0200F03D0DA6812F0200F37D110BD45
:102F4000FFF76BFF2046FFF76AFF81E72046FFF798
:102F500064FF2046FFF763FF92E72046FFF75DFF1F
:102F60002046FFF75CFFA3E72046FFF756FF204609
:102F7000FFF755FFB4E76FF001021A612046FFF733
:102F80004BFFB8E76FF080021A61204600F085F928
:102F9000BAE76FF480721A61204600F07FF9BCE74F
:102FA0006FF040021A612046FFF73AFFBEE76FF06C
:102FB00020021A61204600F06FF9C0E703681A4A40
:102FC000904202D0B0F1804F03D123F070034A68E1
:102FD0001343154A90420AD0B0F1804F07D002F552
:102FE000A052904203D002F58062904203D123F4B4
:102FF0004073CA68134323F080034A691343036094
:103000008B68C3620B688362074B984207D003F555
:10301000A053984203D003F58063984201D10B6915
:103020000363012343617047002C014060B310B576
:10303000044690F83D3013B3022384F83D30214616
:1030400051F8040BFFF7BAFF012384F8483084F8E5
:103050003E3084F83F3084F8403084F8413084F8C2
:10306000423084F8433084F8443084F8453084F8A2
:10307000463084F8473084F83D30002010BD80F899
:103080003C30FEF759F9D7E701207047002853D0AC
:10309000F8B50D46044690F83D30002B47D002238A
:1030A00084F83D302268936823F4A03323F00703AB
:1030B0009360214651F8040BFFF780FF21688B686D
:1030C0008A690E6A2868184322F4407222F00302CB
:1030D000AB68AF6943EA0723134323F47C4323F02F
:1030E000FC03EA68EF6942EA07221A432B6A1B03D2
:1030F0002F6943EA0713134326F0AA066A686D692D
:1031000042EA05123243886021688B6123681A62A3
:10311000012384F8483084F83E3084F83F3084F846
:10312000443084F8453084F83D300020F8BD80F804
:103130003C30FEF7D1F8B2E70120704701F01F01E3
:103140004FF0010C0CFA01FC036A23EA0C03036242
:10315000036A8A4013430362704738B5044690F807
:103160003E00C0B294F83F3094F84420D2B294F8B4
:1031700045C00D46B1B9012849D1012A48D10223E1
:1031800084F83E3084F844307DB3042D39D00122D8
:1031900000212068FFF7D2FF012204212068FFF7F9
:1031A000CDFF27E0DBB25FFA8CFC042912D00128A6
:1031B00033D1012B2CD1012A31D1BCF1010F30D1F7
:1031C000022384F83E3084F83F3084F8443084F899
:1031D0004530D9E7012B1CD1BCF1010F1BD10223D3
:1031E00084F83F3084F84530CEE701220021206882
:1031F000FFF7A4FF2268136843F001031360002067
:1032000006E0012204212068FFF798FFF2E7012081
:1032100038BD0120FCE71846FAE70120F8E7184618
:10322000F6E71046F4E7000090F83C20012A2FD082
:1032300030B40346012280F83C20022280F83D2071
:10324000006842688468134DA8421CD022F07002C6
:103250000D682A4342601A680E48824206D0B2F1D5
:10326000804F03D000F5A050824204D124F08004A6
:10327000896821439160012283F83D20002083F872
:103280003C0030BC704722F470024D682A43DDE7F1
:1032900002207047002C01407047704770470000C3
:1032A00010B5044683680269134342691343C26937
:1032B0001343016808688C4A02401A430A60226876
:1032C000536823F44053E1680B435360A1692268BB
:1032D000864B9A4201D0236A1943936823F43063E2
:1032E0000B4393602368824A93421CD0814A9342E5
:1032F0002DD07E4A934243D010227C498B4260D02D
:10330000E069B0F5004F00F08C80082A00F2E580FB
:10331000DFE812F0B400CA00B200E300CD00E30021
:10332000E300E300D00002F55842D2F8882002F012
:103330000302032A09D8DFE802F00204380601225A
:10334000DBE70422D9E70822D7E71022D5E702F508
:10335000E632D2F8882002F00C020C2A0ED8DFE800
:1033600002F0070D0D0D090D0D0D260D0D0D0B00B5
:103370000022C2E70422C0E70822BEE71022BCE711
:1033800002F5C832D2F8882002F44062B2F5006F2C
:103390000FD005D87AB1B2F5806F0ED10422ACE718
:1033A000B2F5406F0BD10822A7E70222A5E702225F
:1033B000A3E70222A1E700229FE710229DE7102247
:1033C0009BE7082A79D8DFE802F008782A7827787E
:1033D000787805004FF4004003E0FFF78FFA0028EB
:1033E0006DD0626802EB420383426AD8B0EB023FC1
:1033F00069D8010E00025308C0184FF0000341F1D4
:103400000001FDF73BFBA0F540723B4B9A425CD8B4
:103410002368D860002043E0FEF716FEDFE7374858
:10342000DFE7082A53D8DFE802F0072105522452CB
:1034300052520B00314803E0FFF760FA002848D0F1
:103440006268530803EB4003B3FBF2F3A3F11001EE
:103450004FF6EF7291423ED89AB222F00F02C3F3B8
:10346000420313432268D360002019E0FFF758FAA3
:10347000E4E7FEF7E9FDE1E7204802E0FFF73EFA66
:1034800068B3636800EB5300B0FBF3F0A0F11002E7
:103490004FF6EF739A4224D8236880B2D860002098
:1034A00000236366A36610BDFFF73AFAE8E7FEF76C
:1034B000CBFDE5E74FF40040E3E70120F0E7002013
:1034C000EEE70120ECE70120EAE70120E8E7012030
:1034D000E6E70020E4E70120E2E70120E0E7002042
:1034E000DEE70120DCE700BFF369FFEF008000406A
:1034F0000038014000440040FFFC0F000024F400AD
:10350000436A13F0010F06D00268536823F40033B6
:10351000816A0B435360436A13F0020F06D00268BE
:10352000536823F48033C16A0B435360436A13F03A
:10353000040F06D00268536823F48023016B0B4309
:103540005360436A13F0080F06D00268536823F4EF
:103550000043416B0B435360436A13F0100F06D0D6
:103560000268936823F48053816B0B439360436A32
:1035700013F0200F06D00268936823F40053C16B48
:103580000B439360436A13F0400F0AD002685368FC
:1035900023F48013016C0B435360036CB3F5801F5D
:1035A0000BD0436A13F0800F06D00268536823F4EF
:1035B0000023816C0B43536070470268536823F407
:1035C000C003416C0B435360EBE72DE9F84305461C
:1035D0000F4616469946DDF820802B68DC6937EAED
:1035E00004040CBF01240024B44253D1B8F1FF3FBE
:1035F000F3D0FDF7B1FFA0EB090040452DD8B8F19D
:10360000000F2AD02B681A6812F0040FE5D0DA698F
:1036100012F4006FE1D04FF400621A622A6852E897
:10362000003F23F4D07342E800310029F6D12A6824
:1036300002F1080353E8003F23F00103083242E897
:1036400000310029F3D12023AB67EB67C5F8803048
:10365000002385F8743003201DE02A6852E8003FFB
:1036600023F4D07342E800310029F6D12A6802F130
:10367000080353E8003F23F00103083242E8003119
:103680000029F3D12023AB67EB67002385F8743062
:10369000032000E00020BDE8F8832DE9F04182B06E
:1036A0001E46836F202B56D104460D4690460029B6
:1036B00055D0002A55D090F87430012B53D00123F7
:1036C00080F874300023C0F8803021238367FDF731
:1036D00043FF0746A4F85080A4F85280A368B3F5CE
:1036E000805F05D04FF00008002384F8743014E0A8
:1036F000236913B14FF00008F6E7A8460025F3E769
:1037000038F8023B2268C3F308031385B4F852204B
:1037100092B2013A92B2A4F85220B4F852309BB25D
:1037200073B100963B46002280212046FFF74DFFF3
:10373000D8B9002DE4D015F8012B23681A85E5E7E8
:1037400000963B46002240212046FFF73EFF70B91D
:103750002023A36700E0022002B0BDE8F081012031
:10376000FAE70120F8E70220F6E70320F4E7032058
:10377000F2E730B583B004460023C0F88030FDF78F
:10378000EBFE05462268126812F0080F0DD123687F
:103790001B6813F0040F16D12023A367E3670020F2
:1037A000206684F8740003B030BD6FF07E43009350
:1037B000034600224FF400112046FFF706FF0028C1
:1037C000E5D00320EFE76FF07E4300932B46002205
:1037D0004FF480012046FFF7F8FE0028DCD00320DC
:1037E000E1E768B310B50446836F03B32423A367EE
:1037F0002268136823F0010313602046FFF750FD91
:10380000012813D0636ABBB92268536823F490433C
:1038100053602268936823F02A0393602268136838
:1038200043F0010313602046FFF7A3FF10BD80F8AB
:103830007430FDF7B9FDD9E72046FFF761FEE3E7F5
:1038400001207047DFF834D0FDF738FE0C480D49F1
:103850000D4A002302E0D458C4500433C4188C42EB
:10386000F9D30A4A0A4C002301E013600432A24251
:10387000FBD300F039F8FDF7E5FAFEE70000012080
:103880000000002068000020B052000868000020FE
:10389000BC070020FEE700000EB400B59CB01DABD5
:1038A000029006906FF00041094807910491094980
:1038B00053F8042B05910068019302A900F08EF9DA
:1038C000029B00221A701CB05DF804EB03B0704735
:1038D000140000200802FFFF02440346934200D177
:1038E000704703F8011BF9E770B50D4D0D4C641BD3
:1038F000A4100026A64209D10B4D0C4C00F0D0FDBF
:10390000641BA4100026A64205D170BD55F8043BE7
:1039100098470136EEE755F8043B98470136F2E741
:10392000A0520008A0520008A0520008A4520008AB
:103930007047704738B50546002941D051F8043C1E
:103940000C1F002BB8BFE41800F0E0F81D4A136804
:1039500033B9636014602846BDE8384000F0DCB835
:10396000A34208D9206821188B4201BF19685B68FF
:1039700009182160EDE71A465B680BB1A342FAD93A
:1039800011685018A0420BD120680144501883429E
:103990001160E0D118685B68536008441060DAE792
:1039A00002D90C232B60D6E7206821188B4204BF74
:1039B00019685B68636004BF091821605460CAE736
:1039C00038BD00BFB407002070B50F4E0C463168FB
:1039D000054611B900F0A4FB30602146284600F0EE
:1039E0009FFB431C03D14FF0FF34204670BDC41C25
:1039F00024F00304A042F8D0211A284600F090FBDE
:103A00000130F2D1EFE700BFB00700202DE9F84305
:103A1000CD1C25F0030508350C2D38BF0C25002DD5
:103A2000064601DBA94204D90C2333600020BDE81F
:103A3000F883DFF8D48000F069F8D8F800301C462D
:103A400044BB29463046FFF7BFFF431C044658D10C
:103A5000D8F800402746002F43D1002C4BD02368D4
:103A60003946304604EB030900F05AFB814542D148
:103A700021686D1A29463046FFF7A6FF01303AD07B
:103A800023682B442360D8F800305A6862BBC8F81A
:103A900000700FE02268521B20D40B2A17D961193D
:103AA000A342256018BF5960636808BFC8F80010BA
:103AB00062514B60304600F02FF804F10B00231DDB
:103AC00020F00700C21A1CBF1B1AA350AFE76268A0
:103AD000A3420CBFC8F800205A60EBE72346646895
:103AE000AEE73C467F68B6E71A465B68A342FBD167
:103AF00000235360DEE70C233360304600F00CF8FF
:103B000094E70560D6E700BFB40700200148FFF73F
:103B10000FBF00BFAC0700200148FFF70ABF00BF7E
:103B2000AC0700202DE9F0478E681F46BE420B68A7
:103B300082460C4690462DD8B1F90C2012F4906FB5
:103B400026D06569096905EB4505A3EB010905EB7D
:103B5000D5757B1C4B446D109D4238BF1D465305E7
:103B600027D52946FFF752FF064660B321694A462A
:103B700000F0E6FAA38923F4906343F08003A38165
:103B8000266165614E44A5EB09052660A5603E46A9
:103B9000BE4200D93E4620683246414600F0A6FAB1
:103BA000A3689B1BA3602368334423600020BDE807
:103BB000F0872A4600F0D2FA06460028E0D12169B3
:103BC0005046FFF7B7FE0C23CAF80030A38943F034
:103BD0004003A3814FF0FF30E9E700002DE9F04FEB
:103BE00098468B891B069DB007460D46144610D596
:103BF0000B6973B94021FFF709FF2860286130B9CC
:103C00000C233B604FF0FF301DB0BDE8F08F402328
:103C10006B610023099320238DF82930CDF80C80A7
:103C20003023DFF89C818DF82A304FF001092346BC
:103C30009A4613F8012B0AB1252AF9D1BAEB040BE5
:103C40000BD05B46224629463846FFF76BFF013012
:103C500000F0A780099A5A4409929AF80030002B84
:103C600000F09F8000234FF0FF32CDE905230AF1D9
:103C7000010A049307938DF853301A935446052292
:103C800014F8011B4E48FCF78BFA049AD8B9D006F9
:103C900044BF20238DF85330110744BF2B238DF8E8
:103CA00053309AF800302A2B15D0079A544600203A
:103CB0004FF00A0C214611F8013B303B092B4BD940
:103CC000B0B1079214E0A0EB080309FA03F3134321
:103CD0000493A246D2E7039B191D1B680391002B96
:103CE000BBBF5B4242F0020207930793B8BF049246
:103CF00023782E2B0AD163782A2B32D1039B1A1DED
:103D00001B68039243EAE37302340593DFF8C0A013
:103D1000217803225046FCF743FA38B1049BA0EB0C
:103D20000A004022824013430134049314F8011B1B
:103D300024488DF828100622FCF732FA002836D0E5
:103D4000214B1BBB039B073323F00703083303936B
:103D5000099B334409936AE70CFB02320C460120AD
:103D6000A8E700230134059319464FF00A0C2046BA
:103D700010F8012B303A092A03D9002BC6D005913F
:103D8000C4E70CFB012104460123F0E703AB0093D9
:103D90002A460E4B04A93846AFF30080421C064663
:103DA000D6D1AB895B063FF52DAF09982CE703AB65
:103DB00000932A46054B04A9384600F079F8EDE750
:103DC000645200086E52000800000000253B000805
:103DD0006A5200082DE9F047164698468A680B6932
:103DE000DDF820909342B8BF1346336091F843202A
:103DF00007460C460AB1013333602368990642BF77
:103E0000336802333360256815F0060506D104F1E6
:103E1000190AE36832689B1AAB4226DC94F84330F7
:103E20002268003B18BF012392062BD404F1430201
:103E300041463846C84701301ED02368226903F046
:103E40000603042B02BFE5683368ED1AA3680CBFB4
:103E500025EAE57500259342C4BF9B1AED1800269C
:103E60001A34B5421AD1002008E0012352464146D7
:103E70003846C847013003D14FF0FF30BDE8F08726
:103E80000135C6E7E1185A1C302081F8430022446E
:103E900094F8451082F843100233C7E70123224605
:103EA00041463846C8470130E6D00136D9E7000020
:103EB0002DE9FF470F7E0C9E782F914680460C46D9
:103EC0009A4601F1430207D8622F0AD8002F00F06A
:103ED000D180582F00F0B88004F1420684F8427077
:103EE0003AE0A7F16303152BF6D801A151F823F0AE
:103EF000493F00085D3F0008D93E0008D93E000850
:103F0000D93E0008D93E00085D3F0008D93E0008B0
:103F1000D93E0008D93E0008D93E00085B400008A1
:103F2000873F000815400008D93E0008D93E000828
:103F30007D400008D93E0008873F0008D93E0008B0
:103F4000D93E00081D40000833681A1D1B68326006
:103F500004F1420684F8423001239CE03368206873
:103F6000191D3160060601D51D6803E04506FBD525
:103F7000B3F90050002D03DA2D236D4284F843304D
:103F800058480A2311E021683368080653F8045B97
:103F900002D4490648BFADB26F2F5248336014BFF8
:103FA0000A230823002184F843106668A660002EC7
:103FB00005DB21682E4321F0040121604BD0164619
:103FC000B5FBF3F103FB1157C75D06F8017D2F46E2
:103FD000BB420D46F4D9082B0BD12368DF0708D567
:103FE000236961689942DEBF302306F8013C06F17F
:103FF000FF36921B2261CDF800A04B4603AA214652
:104000004046FFF7E7FE01304AD14FF0FF3004B0E1
:10401000BDE8F087236843F0200323603248782707
:1040200084F84570236831681F0651F8045B02D498
:104030005F0648BFADB23160D90744BF43F02003EB
:1040400023601DB11023ADE72648E9E7236823F07C
:1040500020032360F6E71646BDE7336825686169EB
:10406000181D30602E061B6801D5196002E0680635
:10407000FBD51980002323611646BCE733681A1D5F
:1040800032601E68626800213046FCF789F808B18A
:10409000801B606063682361002384F84330AAE7D3
:1040A0002369324649464046D0470130ADD02368A7
:1040B0009B0713D4E068039B9842B8BF1846A6E755
:1040C0000123324649464046D04701309DD0013554
:1040D000E36803995B1AAB42F2DCEBE7002504F1DD
:1040E0001906F5E77552000886520008884210B597
:1040F00001EB020402D98442234607D8431EA142A1
:1041000008D011F8012B03F8012FF8E7024401460B
:104110008A4200D110BD13F8014D02F8014DF7E7B6
:1041200038B5064D0023044608462B6000F04CF8D5
:10413000431C02D12B6803B1236038BDA8070020BF
:104140000A44914200F1FF3300D1704710B511F8D5
:10415000014B03F8014F9142F9D110BD2DE9F04117
:10416000074614460D4621B9BDE8F0411146FFF758
:104170004DBC2AB9FFF7DEFB25462846BDE8F08195
:1041800000F01AF88442064602D8B4EB500FF4D877
:1041900021463846FFF73AFC804608B94546ECE729
:1041A000B4422246294628BF3246FFF7C9FF2946B6
:1041B0003846FFF7BFFBF1E751F8043C181F002B0E
:1041C000BCBF0B58C0187047044A05491368002B40
:1041D00008BF0B461844106018467047B807002007
:1041E000C00700202DE9F047089D0E4604460F4603
:1041F000002B4AD194468C45B2FA82F260D942B182
:10420000C2F12003974020FA03F30CFA02FC1F438B
:1042100094404FEA1C4E1FFA8CF6B7FBFEF1230CBC
:104220000EFB117743EA074301FB06F098420AD9D7
:104230001CEB030301F1FF3780F01581984240F237
:104240001281023963441B1AA4B2B3FBFEF00EFBC9
:10425000103344EA034400FB06F6A6420AD91CEBDD
:10426000040400F1FF3380F00081A64240F2FD809B
:104270006444023840EA0140A41B00211DB1D4402F
:104280000023C5E90043BDE8F0878B4205D90DB195
:10429000C5E9000100210846F5E7B3FA83F10029DA
:1042A00046D1B34202D3824200F2F580841A66EB13
:1042B000030201201746002DE5D0C5E90047E2E7DB
:1042C000002A40F09380A1EB0C034FEA1C471FFA31
:1042D0008CFE0121B3FBF7F607FB1630230C43EAF3
:1042E00000430EFB06F0984208D91CEB030306F1CD
:1042F000FF3802D2984200F2D08046461B1AA4B280
:10430000B3FBF7F007FB103344EA03440EFB00FE57
:10431000A64508D91CEB040400F1FF3302D2A645E0
:1043200000F2B6801846A4EB0E0440EA0640A5E76A
:10433000C1F120078B4022FA07FC4CEA030C06FA75
:1043400001FE20FA07F426FA07F344EA0E0400FA05
:1043500001F84FEA1C404FEA1449B3FBF0FE1FFA84
:104360008CF600FB1E3349EA03430EFB06F9994520
:1043700002FA01F20BD91CEB03030EF1FF3A80F0B5
:104380008580994540F28280AEF1020E6344A3EB32
:104390000909A4B2B9FBF0F300FB139944EA0944FC
:1043A00003FB06F6A64208D91CEB040403F1FF3018
:1043B00068D2A64266D9023B644443EA0E40A41B7D
:1043C000A0FB02E6B4427346B14652D34FD05DB172
:1043D000B8EB030264EB090404FA07F722FA01F3CD
:1043E0001F43CC40C5E9007400214CE7C2F1200115
:1043F00020FA01F30CFA02FC26FA01F1964033434D
:104400004FEA1C471FFA8CFEB1FBF7F007FB1016B2
:10441000190C41EA064100FB0EF68E4204FA02F442
:1044200008D91CEB010100F1FF382DD28E422BD9A7
:1044300002386144891B9BB2B1FBF7F607FB1611EA
:1044400043EA014306FB0EF1994208D91CEB030332
:1044500006F1FF3814D2994212D9023E63445B1A26
:1044600046EA004136E73946EDE6184602E7F045F0
:10447000ADD2BEEB020366EB0C060138B146A6E7EF
:104480004646ECE7034698E74046D3E7D6467EE744
:104490006444023847E708460DE7023E63442DE7CF
:1044A000F8B500BFF8BC08BC9E467047F8B500BF21
:0844B000F8BC08BC9E467047F1
:1044B80000000000000000000000000000000000F4
:1044C80000000000000000000000000000000000E4
:1044D800000000000000000C000C000C000C000C98
:1044E800000C000C000C000C000C000C0000000C70
:1044F800000C0000000000000000001B001B001B57
:10450800001B001B0000000000000000000000006D
:1045180000000000000000000000000000008019FA
:10452800801980198019C07FC07F80190033C07F2F
:10453800C07F003300330033003300000000000068
:104548000000001E003F807580650074003C001E5E
:1045580000078005806580658075003F001E0004A7
:10456800000400000000007000D840D8C0D880D9EE
:1045780000730006000C801BC036C066C046C0062B
:1045880080030000000000000000001E003F003310
:1045980000330033001E000CC03CC066806380619D
:1045A8008063C03E801C0000000000000000000C7A
:1045B800000C000C000C000C0000000000000000C3
:1045C80000000000000000000000000000000000E3
:1045D800800000010003000600060004000C000C27
:1045E800000C000C000C000C000400060006000380
:1045F80000018000002000100018000C000C0004CE
:104608000006000600060006000600060004000C6E
:10461800000C0018001000200000000C002D003FC6
:10462800001E003300000000000000000000000031
:104638000000000000000000000000000000000072
:104648000000000C000C000C000CC0FFC0FF000CA8
:10465800000C000C000C000000000000000000002E
:104668000000000000000000000000000000000042
:1046780000000000000000000000000C000C000416
:104688000004000800000000000000000000000016
:10469800000000000000001E001E000000000000D6
:1046A8000000000000000000000000000000000002
:1046B80000000000000000000000000000000000F2
:1046C8000000000C000C00000000000000000003C7
:1046D800000300030006000600060006000C000C9C
:1046E800000C000C00180018001800000000000062
:1046F8000000001E003F0033806180618061806D92
:10470800806D8061806180610033003F001E000081
:104718000000000000000006000E001E0036002603
:104728000006000600060006000600060006000651
:1047380000060000000000000000001E003F80731B
:1047480080618061800100030006000C00180030C1
:104758000060807F807F0000000000000000001CD7
:10476800003E006300630003000E000E000380019A
:10477800800180618073003F001E0000000000007F
:1047880000000006000E000E001E001E0016003677
:1047980000360066807F807F000600060006000065
:1047A800000000000000007F007F006000600060E3
:1047B800006E007F80638001800180618073003F0C
:1047C800001E0000000000000000001E003F8033B3
:1047D80080610060006E007F80738061806180610D
:1047E8008033003F001E0000000000000000807FB2
:1047F800807F80010003000300060006000C000C07
:10480800000C000800180018001800000000000044
:104818000000001E003F8063806180610021001E4F
:10482800003F8061806180618061003F001E000060
:10483800000000000000001E003F007380618061DE
:1048480080618073803F801D800180610073003F1C
:10485800001E000000000000000000000000000032
:104868000000000C000C0000000000000000000028
:104878000000000C000C0000000000000000000018
:104888000000000000000000000C000C0000000008
:10489800000000000000000C000C000400040008E8
:1048A800000000000000000080008003000E0038B7
:1048B80000600038000E8003800000000000000047
:1048C8000000000000000000000000000000807FE1
:1048D800807F00000000807F807F000000000000D3
:1048E80000000000000000000000000000000000C0
:1048F80000400070001C000780010007001C0070C9
:104908000040000000000000000000000000001F40
:10491800803FC071C060C000C00180030007000E66
:10492800000C000C0000000C000C0000000000004F
:104938000000001E003F803180718063806F806DB1
:10494800806D806F806700600032003E001C0000B0
:10495800000000000000000E000E001B001B001BE2
:10496800001B80318031803F803F8031C060C06053
:10497800C0600000000000000000007C007E0063B2
:10498800006300630063007E007E006380618061D5
:104998008063007F007E0000000000000000001E11
:1049A800003F80318061006000600060006000604E
:1049B800006080618031003F001E000000000000A0
:1049C8000000007C007F00638063806180618061FB
:1049D80080618061806100630063007E007C00006C
:1049E800000000000000807F807F006000600060A1
:1049F8000060007F007F0060006000600060807FD2
:104A0800807F0000000000000000807F807F006041
:104A1800006000600060007F007F00600060006050
:104A28000060006000600000000000000000001E40
:104A3800003F8031806100600060006080638063B7
:104A4800806180618031803F001E0000000000000E
:104A58000000806180618061806180618061807F09
:104A6800807F8061806180618061806180610000F9
:104A7800000000000000003F003F000C000C000C8C
:104A8800000C000C000C000C000C000C000C003F8B
:104A9800003F00000000000000008001800180014C
:104AA8008001800180018001800180018061806136
:104AB8008073003F001E0000000000000000C0607E
:104AC8008061006300660066006C0078007C006608
:104AD8000066006380618061C06000000000000023
:104AE800000000600060006000600060006000601E
:104AF80000600060006000600060807F807F0000D0
:104B0800000000000000C071C071C07BC07AC06A9C
:104B1800C06AC06EC064C060C060C060C060C06071
:104B2800C060000000000000000080718071807982
:104B380080798079806D806D806D80658067806701
:104B48008067806380630000000000000000001E92
:104B5800003F003380618061806180618061806195
:104B6800806180610033003F001E000000000000EB
:104B78000000007E007F80638061806180618063C7
:104B8800007F007E00600060006000600060000040
:104B9800000000000000001E003F003380618061BB
:104BA8008061806180618061806580670033803FBB
:104BB800401E0000000000000000007E007F8063AF
:104BC800806180618063007F007E0066006300630F
:104BD80080618061C0600000000000000000000EDD
:104BE800001F8031803100300038001E000780032C
:104BF800806180618031003F001E000000000000DD
:104C08000000C0FFC0FF000C000C000C000C000CE2
:104C1800000C000C000C000C000C000C000C000038
:104C28000000000000008061806180618061806117
:104C38008061806180618061806180618073003FF4
:104C4800001E0000000000000000C060C060C060DE
:104C5800803180318031001B001B001B001B000EBF
:104C6800000E000E00040000000000000000C0C09C
:104C7800C0C0C0C0C0C0C0C0C0CC804C804C805E2A
:104C880080528052807380618061000000000000C3
:104C98000000C0C0806080610033003B001E000C33
:104CA800000C001E001F003B80718061C0C0000026
:104CB800000000000000C0C0806180610033003344
:104CC800001E001E000C000C000C000C000C000C58
:104CD800000C0000000000000000803F803F8001C1
:104CE800000300030006000C000C00180018003038
:104CF8000060807F807F000000000000000F000F30
:104D0800000C000C000C000C000C000C000C000C3B
:104D1800000C000C000C000C000C000C000F000F25
:104D28000000001800180018000C000C000C000C03
:104D3800000600060006000600030003000300004A
:104D480000000000001E001E000600060006000607
:104D5800000600060006000600060006000600061B
:104D680000060006001E001E0000000C000C001EBD
:104D780000120033003380618061000000000000F1
:104D8800000000000000000000000000000000001B
:104D9800000000000000000000000000000000000B
:104DA800000000000000000000000000E0FF00001C
:104DB800000000380018000C00000000000000008F
:104DC80000000000000000000000000000000000DB
:104DD8000000000000000000000000000000001FAC
:104DE800803F80618001801F803F80618063807F79
:104DF800C038000000000000000000600060006093
:104E08000060006E007F80738061806180618061D6
:104E18008073007F006E00000000000000000000AA
:104E2800000000000000001E003F807380610060E9
:104E3800006080618073003F001E000000000000D9
:104E480000008001800180018001801D803F807307
:104E580080618061806180618073803F801D000077
:104E68000000000000000000000000000000001E1C
:104E7800003F00738061807F807F00608071003F09
:104E8800001E0000000000000000C007C00F000C5A
:104E9800000C807F807F000C000C000C000C000CC4
:104EA800000C000C000C00000000000000000000D6
:104EB80000000000801D803F8073806180618061F8
:104EC80080618073803F801D80018063007F003E89
:104ED80000000060006000600060006F807F8071EB
:104EE8008061806180618061806180618061000093
:104EF8000000000000000006000600000000003E60
:104F0800003E000600060006000600060006000631
:104F18000006000000000000000600060000000077
:104F2800003E003E000600060006000600060006D9
:104F38000006000600060046007E003C00000060F7
:104F4800006000600060806100630066006C007CA7
:104F58000076006300638061C0600000000000000C
:104F68000000003E003E000600060006000600069F
:104F780000060006000600060006000600060000FF
:104F8800000000000000000000000000000080DDBC
:104F9800C0FFC0CEC0CCC0CCC0CCC0CCC0CCC0CC74
:104FA800C0CC00000000000000000000000000006D
:104FB8000000006F807F8071806180618061806106
:104FC8008061806180610000000000000000000036
:104FD800000000000000001E003F807380618061B7
:104FE800806180618073003F001E000000000000A7
:104FF8000000000000000000006E007F80738061E8
:105008008061806180618073007F006E0060006055
:10501800006000600000000000000000801D803F6C
:10502800807380618061806180618073803F801DB2
:105038008001800180018001000000000000000064
:1050480000000067803F0039003000300030003039
:1050580000300030003000000000000000000000B8
:10506800000000000000001E803F80610060007F9B
:10507800803F80018061007F001E0000000000006A
:1050880000000000000800180018007F007F0018CA
:1050980000180018001800180018801F800F000062
:1050A8000000000000000000000000000000806117
:1050B8008061806180618061806180618063807FC0
:1050C800803D00000000000000000000000000001B
:1050D8000000C060803180318031001B001B001B44
:1050E800000E000E00060000000000000000000096
:1050F80000000000000080DD80DD80DD00550055E7
:105108000055007700770022002200000000000010
:105118000000000000000000000080610033003340
:10512800001E000C000C001E0033003380610000DC
:1051380000000000000000000000000080618061A5
:10514800803100330033001B001B001B000E000ED3
:10515800000E001C007C0070000000000000000031
:105168000000C07FC07F800100030006000C00180B
:105178000030C07FC07F000000000000800380076F
:1051880000060006000600060006000E001C001CB3
:10519800000E0006000600060006000680078003D1
:1051A80000060006000600060006000600060006C7
:1051B80000060006000600060006000600060006B7
:1051C800000600060038003C000C000C000C000C27
:1051D800000C000E00070007000E000C000C000C6D
:1051E800000C000C003C003800000000000000002B
:1051F8000000000000008038807F004700000000A9
:10520800000000000000000000000000256420727B
:10521800706D0A00A0860100400D0300801A060088
:1052280000350C0040420F0080841E0000093D003C
:1052380000127A000024F40000366E010048E801EC
:10524800006CDC0200000000010203040000000002
:10525800000000000102030406070809232D302B73
:105268002000686C4C00656667454647003031325F
:1052780033343536373839414243444546003031B6
:105288003233343536373839616263646566000015
:08529800F8AEFF7F01000000E9
:0852A000D50A0008000000001F
:0852A800B10A0008000000003B
:1052B0000B120000B844000800093D000100000086
:1052C0001000000018000020000000007006002000
:1052D000D806002040070020000000000000000069
:1052E00000000000000000000000000000000000BE
:1052F00000000000000000000000000000000000AE
:10530000000000000000000000000000000000009D
:08531000000000000000000095
:040000050800384572
:00000001FF
